{
  "_format": "hh-sol-artifact-1",
  "contractName": "NFTMarketplace",
  "sourceName": "contracts/NFTMarket.sol",
  "abi": [
    {
      "inputs": [],
      "stateMutability": "nonpayable",
      "type": "constructor"
    },
    {
      "anonymous": false,
      "inputs": [
        {
          "indexed": true,
          "internalType": "address",
          "name": "owner",
          "type": "address"
        },
        {
          "indexed": true,
          "internalType": "address",
          "name": "approved",
          "type": "address"
        },
        {
          "indexed": true,
          "internalType": "uint256",
          "name": "tokenId",
          "type": "uint256"
        }
      ],
      "name": "Approval",
      "type": "event"
    },
    {
      "anonymous": false,
      "inputs": [
        {
          "indexed": true,
          "internalType": "address",
          "name": "owner",
          "type": "address"
        },
        {
          "indexed": true,
          "internalType": "address",
          "name": "operator",
          "type": "address"
        },
        {
          "indexed": false,
          "internalType": "bool",
          "name": "approved",
          "type": "bool"
        }
      ],
      "name": "ApprovalForAll",
      "type": "event"
    },
    {
      "anonymous": false,
      "inputs": [
        {
          "indexed": true,
          "internalType": "uint256",
          "name": "tokenId",
          "type": "uint256"
        },
        {
          "indexed": false,
          "internalType": "address",
          "name": "seller",
          "type": "address"
        },
        {
          "indexed": false,
          "internalType": "address",
          "name": "owner",
          "type": "address"
        },
        {
          "indexed": false,
          "internalType": "uint256",
          "name": "price",
          "type": "uint256"
        },
        {
          "indexed": false,
          "internalType": "bool",
          "name": "sold",
          "type": "bool"
        }
      ],
      "name": "MarketItemCreated",
      "type": "event"
    },
    {
      "anonymous": false,
      "inputs": [
        {
          "indexed": true,
          "internalType": "address",
          "name": "from",
          "type": "address"
        },
        {
          "indexed": true,
          "internalType": "address",
          "name": "to",
          "type": "address"
        },
        {
          "indexed": true,
          "internalType": "uint256",
          "name": "tokenId",
          "type": "uint256"
        }
      ],
      "name": "Transfer",
      "type": "event"
    },
    {
      "inputs": [
        {
          "internalType": "address",
          "name": "to",
          "type": "address"
        },
        {
          "internalType": "uint256",
          "name": "tokenId",
          "type": "uint256"
        }
      ],
      "name": "approve",
      "outputs": [],
      "stateMutability": "nonpayable",
      "type": "function"
    },
    {
      "inputs": [
        {
          "internalType": "address",
          "name": "owner",
          "type": "address"
        }
      ],
      "name": "balanceOf",
      "outputs": [
        {
          "internalType": "uint256",
          "name": "",
          "type": "uint256"
        }
      ],
      "stateMutability": "view",
      "type": "function"
    },
    {
      "inputs": [
        {
          "internalType": "address",
          "name": "owner",
          "type": "address"
        },
        {
          "internalType": "uint256",
          "name": "priceNFT",
          "type": "uint256"
        }
      ],
      "name": "checkBalaceOf",
      "outputs": [
        {
          "internalType": "bool",
          "name": "",
          "type": "bool"
        }
      ],
      "stateMutability": "view",
      "type": "function"
    },
    {
      "inputs": [
        {
          "internalType": "uint256",
          "name": "tokenId",
          "type": "uint256"
        }
      ],
      "name": "createMarketSale",
      "outputs": [],
      "stateMutability": "payable",
      "type": "function"
    },
    {
      "inputs": [
        {
          "internalType": "string",
          "name": "tokenURI",
          "type": "string"
        },
        {
          "internalType": "uint256",
          "name": "price",
          "type": "uint256"
        }
      ],
      "name": "createToken",
      "outputs": [
        {
          "internalType": "uint256",
          "name": "",
          "type": "uint256"
        }
      ],
      "stateMutability": "payable",
      "type": "function"
    },
    {
      "inputs": [],
      "name": "fetchItemsListed",
      "outputs": [
        {
          "components": [
            {
              "internalType": "uint256",
              "name": "tokenId",
              "type": "uint256"
            },
            {
              "internalType": "address payable",
              "name": "seller",
              "type": "address"
            },
            {
              "internalType": "address payable",
              "name": "owner",
              "type": "address"
            },
            {
              "internalType": "uint256",
              "name": "price",
              "type": "uint256"
            },
            {
              "internalType": "bool",
              "name": "sold",
              "type": "bool"
            }
          ],
          "internalType": "struct NFTMarketplace.MarketItem[]",
          "name": "",
          "type": "tuple[]"
        }
      ],
      "stateMutability": "view",
      "type": "function"
    },
    {
      "inputs": [],
      "name": "fetchMarketItems",
      "outputs": [
        {
          "components": [
            {
              "internalType": "uint256",
              "name": "tokenId",
              "type": "uint256"
            },
            {
              "internalType": "address payable",
              "name": "seller",
              "type": "address"
            },
            {
              "internalType": "address payable",
              "name": "owner",
              "type": "address"
            },
            {
              "internalType": "uint256",
              "name": "price",
              "type": "uint256"
            },
            {
              "internalType": "bool",
              "name": "sold",
              "type": "bool"
            }
          ],
          "internalType": "struct NFTMarketplace.MarketItem[]",
          "name": "",
          "type": "tuple[]"
        }
      ],
      "stateMutability": "view",
      "type": "function"
    },
    {
      "inputs": [],
      "name": "fetchMyNFTs",
      "outputs": [
        {
          "components": [
            {
              "internalType": "uint256",
              "name": "tokenId",
              "type": "uint256"
            },
            {
              "internalType": "address payable",
              "name": "seller",
              "type": "address"
            },
            {
              "internalType": "address payable",
              "name": "owner",
              "type": "address"
            },
            {
              "internalType": "uint256",
              "name": "price",
              "type": "uint256"
            },
            {
              "internalType": "bool",
              "name": "sold",
              "type": "bool"
            }
          ],
          "internalType": "struct NFTMarketplace.MarketItem[]",
          "name": "",
          "type": "tuple[]"
        }
      ],
      "stateMutability": "view",
      "type": "function"
    },
    {
      "inputs": [
        {
          "internalType": "uint256",
          "name": "tokenId",
          "type": "uint256"
        }
      ],
      "name": "getApproved",
      "outputs": [
        {
          "internalType": "address",
          "name": "",
          "type": "address"
        }
      ],
      "stateMutability": "view",
      "type": "function"
    },
    {
      "inputs": [],
      "name": "getListingPrice",
      "outputs": [
        {
          "internalType": "uint256",
          "name": "",
          "type": "uint256"
        }
      ],
      "stateMutability": "view",
      "type": "function"
    },
    {
      "inputs": [
        {
          "internalType": "address",
          "name": "owner",
          "type": "address"
        },
        {
          "internalType": "address",
          "name": "operator",
          "type": "address"
        }
      ],
      "name": "isApprovedForAll",
      "outputs": [
        {
          "internalType": "bool",
          "name": "",
          "type": "bool"
        }
      ],
      "stateMutability": "view",
      "type": "function"
    },
    {
      "inputs": [],
      "name": "name",
      "outputs": [
        {
          "internalType": "string",
          "name": "",
          "type": "string"
        }
      ],
      "stateMutability": "view",
      "type": "function"
    },
    {
      "inputs": [
        {
          "internalType": "uint256",
          "name": "tokenId",
          "type": "uint256"
        }
      ],
      "name": "ownerOf",
      "outputs": [
        {
          "internalType": "address",
          "name": "",
          "type": "address"
        }
      ],
      "stateMutability": "view",
      "type": "function"
    },
    {
      "inputs": [
        {
          "internalType": "uint256",
          "name": "tokenId",
          "type": "uint256"
        },
        {
          "internalType": "uint256",
          "name": "price",
          "type": "uint256"
        }
      ],
      "name": "resellToken",
      "outputs": [],
      "stateMutability": "payable",
      "type": "function"
    },
    {
      "inputs": [
        {
          "internalType": "address",
          "name": "from",
          "type": "address"
        },
        {
          "internalType": "address",
          "name": "to",
          "type": "address"
        },
        {
          "internalType": "uint256",
          "name": "tokenId",
          "type": "uint256"
        }
      ],
      "name": "safeTransferFrom",
      "outputs": [],
      "stateMutability": "nonpayable",
      "type": "function"
    },
    {
      "inputs": [
        {
          "internalType": "address",
          "name": "from",
          "type": "address"
        },
        {
          "internalType": "address",
          "name": "to",
          "type": "address"
        },
        {
          "internalType": "uint256",
          "name": "tokenId",
          "type": "uint256"
        },
        {
          "internalType": "bytes",
          "name": "_data",
          "type": "bytes"
        }
      ],
      "name": "safeTransferFrom",
      "outputs": [],
      "stateMutability": "nonpayable",
      "type": "function"
    },
    {
      "inputs": [
        {
          "internalType": "address",
          "name": "operator",
          "type": "address"
        },
        {
          "internalType": "bool",
          "name": "approved",
          "type": "bool"
        }
      ],
      "name": "setApprovalForAll",
      "outputs": [],
      "stateMutability": "nonpayable",
      "type": "function"
    },
    {
      "inputs": [
        {
          "internalType": "bytes4",
          "name": "interfaceId",
          "type": "bytes4"
        }
      ],
      "name": "supportsInterface",
      "outputs": [
        {
          "internalType": "bool",
          "name": "",
          "type": "bool"
        }
      ],
      "stateMutability": "view",
      "type": "function"
    },
    {
      "inputs": [],
      "name": "symbol",
      "outputs": [
        {
          "internalType": "string",
          "name": "",
          "type": "string"
        }
      ],
      "stateMutability": "view",
      "type": "function"
    },
    {
      "inputs": [
        {
          "internalType": "uint256",
          "name": "tokenId",
          "type": "uint256"
        }
      ],
      "name": "tokenURI",
      "outputs": [
        {
          "internalType": "string",
          "name": "",
          "type": "string"
        }
      ],
      "stateMutability": "view",
      "type": "function"
    },
    {
      "inputs": [
        {
          "internalType": "address",
          "name": "from",
          "type": "address"
        },
        {
          "internalType": "address",
          "name": "to",
          "type": "address"
        },
        {
          "internalType": "uint256",
          "name": "tokenId",
          "type": "uint256"
        }
      ],
      "name": "transferFrom",
      "outputs": [],
      "stateMutability": "nonpayable",
      "type": "function"
    },
    {
      "inputs": [
        {
          "internalType": "uint256",
          "name": "_listingPrice",
          "type": "uint256"
        }
      ],
      "name": "updateListingPrice",
      "outputs": [],
      "stateMutability": "payable",
      "type": "function"
    }
  ],
  "bytecode": "0x60806040526658d15e176280006009553480156200001c57600080fd5b50604080518082018252601081526f4d657461766572736520546f6b656e7360801b6020808301918252835180850190945260048452631351551560e21b9084015281519192916200007191600091620000a2565b50805162000087906001906020840190620000a2565b5050600a80546001600160a01b031916331790555062000185565b828054620000b09062000148565b90600052602060002090601f016020900481019282620000d457600085556200011f565b82601f10620000ef57805160ff19168380011785556200011f565b828001600101855582156200011f579182015b828111156200011f57825182559160200191906001019062000102565b506200012d92915062000131565b5090565b5b808211156200012d576000815560010162000132565b600181811c908216806200015d57607f821691505b602082108114156200017f57634e487b7160e01b600052602260045260246000fd5b50919050565b61248380620001956000396000f3fe6080604052600436106101355760003560e01c806370a08231116100ab578063b88d4fde1161006f578063b88d4fde14610331578063bb62bce214610351578063be9af53614610371578063c87b56dd14610384578063e219fc75146103a4578063e985e9c5146103b757600080fd5b806370a08231146102b657806372b3b620146102d657806395d89b41146102e9578063a22cb465146102fe578063ae677aa31461031e57600080fd5b806312e85585116100fd57806312e855851461020d578063202e37401461022c57806323b872dd1461024157806342842e0e1461026157806345f8fa80146102815780636352211e1461029657600080fd5b806301ffc9a71461013a57806306fdde031461016f578063081812fc14610191578063095ea7b3146101c95780630f08efe0146101eb575b600080fd5b34801561014657600080fd5b5061015a610155366004611ffd565b610400565b60405190151581526020015b60405180910390f35b34801561017b57600080fd5b50610184610452565b60405161016691906121d8565b34801561019d57600080fd5b506101b16101ac36600461208b565b6104e4565b6040516001600160a01b039091168152602001610166565b3480156101d557600080fd5b506101e96101e4366004611fd4565b610571565b005b3480156101f757600080fd5b50610200610687565b604051610166919061215c565b34801561021957600080fd5b506009545b604051908152602001610166565b34801561023857600080fd5b5061020061083b565b34801561024d57600080fd5b506101e961025c366004611ee6565b610a2d565b34801561026d57600080fd5b506101e961027c366004611ee6565b610a5e565b34801561028d57600080fd5b50610200610a79565b3480156102a257600080fd5b506101b16102b136600461208b565b610c6b565b3480156102c257600080fd5b5061021e6102d1366004611e9a565b610ce2565b61021e6102e4366004612035565b610d26565b3480156102f557600080fd5b50610184610d71565b34801561030a57600080fd5b506101e9610319366004611f9a565b610d80565b6101e961032c36600461208b565b610d8f565b34801561033d57600080fd5b506101e961034c366004611f21565b610e07565b34801561035d57600080fd5b5061015a61036c366004611fd4565b610e3f565b6101e961037f36600461208b565b610eb7565b34801561039057600080fd5b5061018461039f36600461208b565b61101c565b6101e96103b23660046120a3565b611193565b3480156103c357600080fd5b5061015a6103d2366004611eb4565b6001600160a01b03918216600090815260056020908152604080832093909416825291909152205460ff1690565b60006001600160e01b031982166380ac58cd60e01b148061043157506001600160e01b03198216635b5e139f60e01b145b8061044c57506301ffc9a760e01b6001600160e01b03198316145b92915050565b6060600080546104619061238b565b80601f016020809104026020016040519081016040528092919081815260200182805461048d9061238b565b80156104da5780601f106104af576101008083540402835291602001916104da565b820191906000526020600020905b8154815290600101906020018083116104bd57829003601f168201915b5050505050905090565b60006104ef8261128b565b6105555760405162461bcd60e51b815260206004820152602c60248201527f4552433732313a20617070726f76656420717565727920666f72206e6f6e657860448201526b34b9ba32b73a103a37b5b2b760a11b60648201526084015b60405180910390fd5b506000908152600460205260409020546001600160a01b031690565b600061057c82610c6b565b9050806001600160a01b0316836001600160a01b031614156105ea5760405162461bcd60e51b815260206004820152602160248201527f4552433732313a20617070726f76616c20746f2063757272656e74206f776e656044820152603960f91b606482015260840161054c565b336001600160a01b0382161480610606575061060681336103d2565b6106785760405162461bcd60e51b815260206004820152603860248201527f4552433732313a20617070726f76652063616c6c6572206973206e6f74206f7760448201527f6e6572206e6f7220617070726f76656420666f7220616c6c0000000000000000606482015260840161054c565b61068283836112a8565b505050565b6060600061069460075490565b905060006106a160085490565b6007546106ae9190612348565b90506000808267ffffffffffffffff8111156106da57634e487b7160e01b600052604160045260246000fd5b60405190808252806020026020018201604052801561073357816020015b6040805160a0810182526000808252602080830182905292820181905260608201819052608082015282526000199092019101816106f85790505b50905060005b848110156108325730600b600061075184600161231c565b81526020810191909152604001600020600201546001600160a01b0316141561082057600061078182600161231c565b6000818152600b6020908152604091829020825160a0810184528154815260018201546001600160a01b039081169382019390935260028201549092169282019290925260038201546060820152600482015460ff16151560808201528551929350909185908790811061080557634e487b7160e01b600052603260045260246000fd5b602090810291909101015261081b60018661231c565b945050505b8061082a816123c6565b915050610739565b50949350505050565b6060600061084860075490565b905060008060005b838110156108ab5733600b600061086884600161231c565b81526020810191909152604001600020600201546001600160a01b031614156108995761089660018461231c565b92505b806108a3816123c6565b915050610850565b5060008267ffffffffffffffff8111156108d557634e487b7160e01b600052604160045260246000fd5b60405190808252806020026020018201604052801561092e57816020015b6040805160a0810182526000808252602080830182905292820181905260608201819052608082015282526000199092019101816108f35790505b50905060005b848110156108325733600b600061094c84600161231c565b81526020810191909152604001600020600201546001600160a01b03161415610a1b57600061097c82600161231c565b6000818152600b6020908152604091829020825160a0810184528154815260018201546001600160a01b039081169382019390935260028201549092169282019290925260038201546060820152600482015460ff161515608082015285519293509091859087908110610a0057634e487b7160e01b600052603260045260246000fd5b6020908102919091010152610a1660018661231c565b945050505b80610a25816123c6565b915050610934565b610a373382611316565b610a535760405162461bcd60e51b815260040161054c906122cb565b6106828383836113ff565b61068283838360405180602001604052806000815250610e07565b60606000610a8660075490565b905060008060005b83811015610ae95733600b6000610aa684600161231c565b81526020810191909152604001600020600101546001600160a01b03161415610ad757610ad460018461231c565b92505b80610ae1816123c6565b915050610a8e565b5060008267ffffffffffffffff811115610b1357634e487b7160e01b600052604160045260246000fd5b604051908082528060200260200182016040528015610b6c57816020015b6040805160a081018252600080825260208083018290529282018190526060820181905260808201528252600019909201910181610b315790505b50905060005b848110156108325733600b6000610b8a84600161231c565b81526020810191909152604001600020600101546001600160a01b03161415610c59576000610bba82600161231c565b6000818152600b6020908152604091829020825160a0810184528154815260018201546001600160a01b039081169382019390935260028201549092169282019290925260038201546060820152600482015460ff161515608082015285519293509091859087908110610c3e57634e487b7160e01b600052603260045260246000fd5b6020908102919091010152610c5460018661231c565b945050505b80610c63816123c6565b915050610b72565b6000818152600260205260408120546001600160a01b03168061044c5760405162461bcd60e51b815260206004820152602960248201527f4552433732313a206f776e657220717565727920666f72206e6f6e657869737460448201526832b73a103a37b5b2b760b91b606482015260840161054c565b60006001600160a01b038216610d0a5760405162461bcd60e51b815260040161054c9061223d565b506001600160a01b031660009081526003602052604090205490565b6000610d36600780546001019055565b6000610d4160075490565b9050610d4c8161159b565b610d5633826115e3565b610d608185611716565b610d6a81846117a1565b9392505050565b6060600180546104619061238b565b610d8b3383836118f7565b5050565b600a546001600160a01b03163314610e025760405162461bcd60e51b815260206004820152603060248201527f4f6e6c79206d61726b6574706c616365206f776e65722063616e20757064617460448201526f32903634b9ba34b73390383934b1b29760811b606482015260840161054c565b600955565b610e113383611316565b610e2d5760405162461bcd60e51b815260040161054c906122cb565b610e39848484846119c6565b50505050565b60006001600160a01b038316610e675760405162461bcd60e51b815260040161054c9061223d565b6001600160a01b0383166000908152600c6020526040902054821115610e8f5750600061044c565b6001600160a01b0383166000908152600c602052604090205482101561044c5750600161044c565b6000818152600b6020526040902060038101546001909101546001600160a01b0316348214610f50576040805162461bcd60e51b81526020600482015260248101919091527f506c65617365207375626d6974207468652061736b696e67207072696365206960448201527f6e206f7264657220746f20636f6d706c65746520746865207075726368617365606482015260840161054c565b6000838152600b602052604090206002810180546001600160a01b0319908116331790915560048201805460ff1916600190811790915590910180549091169055610f9f600880546001019055565b610faa3033856113ff565b600a546009546040516001600160a01b039092169181156108fc0291906000818181858888f19350505050158015610fe6573d6000803e3d6000fd5b506040516001600160a01b038216903480156108fc02916000818181858888f19350505050158015610e39573d6000803e3d6000fd5b60606110278261128b565b61108d5760405162461bcd60e51b815260206004820152603160248201527f45524337323155524953746f726167653a2055524920717565727920666f72206044820152703737b732bc34b9ba32b73a103a37b5b2b760791b606482015260840161054c565b600082815260066020526040812080546110a69061238b565b80601f01602080910402602001604051908101604052809291908181526020018280546110d29061238b565b801561111f5780601f106110f45761010080835404028352916020019161111f565b820191906000526020600020905b81548152906001019060200180831161110257829003601f168201915b50505050509050600061113d60408051602081019091526000815290565b9050805160001415611150575092915050565b81511561118257808260405160200161116a9291906120f0565b60405160208183030381529060405292505050919050565b61118b846119f9565b949350505050565b6000828152600b60205260409020600201546001600160a01b0316331461120f5760405162461bcd60e51b815260206004820152602a60248201527f4f6e6c79206974656d206f776e65722063616e20706572666f726d20746869736044820152691037b832b930ba34b7b760b11b606482015260840161054c565b60095434146112305760405162461bcd60e51b815260040161054c90612287565b6000828152600b6020526040902060048101805460ff19169055600381018290556001810180546001600160a01b0319908116331790915560029091018054909116301790556112806008611ad0565b610d8b3330846113ff565b6000908152600260205260409020546001600160a01b0316151590565b600081815260046020526040902080546001600160a01b0319166001600160a01b03841690811790915581906112dd82610c6b565b6001600160a01b03167f8c5be1e5ebec7d5bd14f71427d1e84f3dd0314c0f7b2291e5b200ac8c7c3b92560405160405180910390a45050565b60006113218261128b565b6113825760405162461bcd60e51b815260206004820152602c60248201527f4552433732313a206f70657261746f7220717565727920666f72206e6f6e657860448201526b34b9ba32b73a103a37b5b2b760a11b606482015260840161054c565b600061138d83610c6b565b9050806001600160a01b0316846001600160a01b031614806113d457506001600160a01b0380821660009081526005602090815260408083209388168352929052205460ff165b8061118b5750836001600160a01b03166113ed846104e4565b6001600160a01b031614949350505050565b826001600160a01b031661141282610c6b565b6001600160a01b0316146114765760405162461bcd60e51b815260206004820152602560248201527f4552433732313a207472616e736665722066726f6d20696e636f72726563742060448201526437bbb732b960d91b606482015260840161054c565b6001600160a01b0382166114d85760405162461bcd60e51b8152602060048201526024808201527f4552433732313a207472616e7366657220746f20746865207a65726f206164646044820152637265737360e01b606482015260840161054c565b6114e36000826112a8565b6001600160a01b038316600090815260036020526040812080546001929061150c908490612348565b90915550506001600160a01b038216600090815260036020526040812080546001929061153a90849061231c565b909155505060008181526002602052604080822080546001600160a01b0319166001600160a01b0386811691821790925591518493918716917fddf252ad1be2c89b69c2b068fc378daa952ba7f163c4a11628f55a4df523b3ef91a4505050565b6115e0816040516024016115b191815260200190565b60408051601f198184030181529190526020810180516001600160e01b031663f5b1bba960e01b179052611b27565b50565b6001600160a01b0382166116395760405162461bcd60e51b815260206004820181905260248201527f4552433732313a206d696e7420746f20746865207a65726f2061646472657373604482015260640161054c565b6116428161128b565b1561168f5760405162461bcd60e51b815260206004820152601c60248201527f4552433732313a20746f6b656e20616c7265616479206d696e74656400000000604482015260640161054c565b6001600160a01b03821660009081526003602052604081208054600192906116b890849061231c565b909155505060008181526002602052604080822080546001600160a01b0319166001600160a01b03861690811790915590518392907fddf252ad1be2c89b69c2b068fc378daa952ba7f163c4a11628f55a4df523b3ef908290a45050565b61171f8261128b565b6117825760405162461bcd60e51b815260206004820152602e60248201527f45524337323155524953746f726167653a2055524920736574206f66206e6f6e60448201526d32bc34b9ba32b73a103a37b5b2b760911b606482015260840161054c565b6000828152600660209081526040909120825161068292840190611d6f565b600081116117f15760405162461bcd60e51b815260206004820152601c60248201527f5072696365206d757374206265206174206c6561737420312077656900000000604482015260640161054c565b60095434146118125760405162461bcd60e51b815260040161054c90612287565b6040805160a08101825283815233602080830182815230848601818152606086018881526000608088018181528b8252600b909652979097209551865591516001860180546001600160a01b03199081166001600160a01b0393841617909155925160028701805490941691161790915593516003840155516004909201805460ff1916921515929092179091556118aa91846113ff565b604080513381523060208201529081018290526000606082015282907fb640004f1d14576d0c209e240cad0410e0d8c0c33a09375861fbadae2588a98d9060800160405180910390a25050565b816001600160a01b0316836001600160a01b031614156119595760405162461bcd60e51b815260206004820152601960248201527f4552433732313a20617070726f766520746f2063616c6c657200000000000000604482015260640161054c565b6001600160a01b03838116600081815260056020908152604080832094871680845294825291829020805460ff191686151590811790915591519182527f17307eab39ab6107e8899845ad3d59bd9653f200f220920489ca2b5937696c31910160405180910390a3505050565b6119d18484846113ff565b6119dd84848484611b48565b610e395760405162461bcd60e51b815260040161054c906121eb565b6060611a048261128b565b611a685760405162461bcd60e51b815260206004820152602f60248201527f4552433732314d657461646174613a2055524920717565727920666f72206e6f60448201526e3732bc34b9ba32b73a103a37b5b2b760891b606482015260840161054c565b6000611a7f60408051602081019091526000815290565b90506000815111611a9f5760405180602001604052806000815250610d6a565b80611aa984611c55565b604051602001611aba9291906120f0565b6040516020818303038152906040529392505050565b805480611b1f5760405162461bcd60e51b815260206004820152601b60248201527f436f756e7465723a2064656372656d656e74206f766572666c6f770000000000604482015260640161054c565b600019019055565b80516a636f6e736f6c652e6c6f67602083016000808483855afa5050505050565b60006001600160a01b0384163b15611c4a57604051630a85bd0160e11b81526001600160a01b0385169063150b7a0290611b8c90339089908890889060040161211f565b602060405180830381600087803b158015611ba657600080fd5b505af1925050508015611bd6575060408051601f3d908101601f19168201909252611bd391810190612019565b60015b611c30573d808015611c04576040519150601f19603f3d011682016040523d82523d6000602084013e611c09565b606091505b508051611c285760405162461bcd60e51b815260040161054c906121eb565b805181602001fd5b6001600160e01b031916630a85bd0160e11b14905061118b565b506001949350505050565b606081611c795750506040805180820190915260018152600360fc1b602082015290565b8160005b8115611ca35780611c8d816123c6565b9150611c9c9050600a83612334565b9150611c7d565b60008167ffffffffffffffff811115611ccc57634e487b7160e01b600052604160045260246000fd5b6040519080825280601f01601f191660200182016040528015611cf6576020820181803683370190505b5090505b841561118b57611d0b600183612348565b9150611d18600a866123e1565b611d2390603061231c565b60f81b818381518110611d4657634e487b7160e01b600052603260045260246000fd5b60200101906001600160f81b031916908160001a905350611d68600a86612334565b9450611cfa565b828054611d7b9061238b565b90600052602060002090601f016020900481019282611d9d5760008555611de3565b82601f10611db657805160ff1916838001178555611de3565b82800160010185558215611de3579182015b82811115611de3578251825591602001919060010190611dc8565b50611def929150611df3565b5090565b5b80821115611def5760008155600101611df4565b600067ffffffffffffffff80841115611e2357611e23612421565b604051601f8501601f19908116603f01168101908282118183101715611e4b57611e4b612421565b81604052809350858152868686011115611e6457600080fd5b858560208301376000602087830101525050509392505050565b80356001600160a01b0381168114611e9557600080fd5b919050565b600060208284031215611eab578081fd5b610d6a82611e7e565b60008060408385031215611ec6578081fd5b611ecf83611e7e565b9150611edd60208401611e7e565b90509250929050565b600080600060608486031215611efa578081fd5b611f0384611e7e565b9250611f1160208501611e7e565b9150604084013590509250925092565b60008060008060808587031215611f36578081fd5b611f3f85611e7e565b9350611f4d60208601611e7e565b925060408501359150606085013567ffffffffffffffff811115611f6f578182fd5b8501601f81018713611f7f578182fd5b611f8e87823560208401611e08565b91505092959194509250565b60008060408385031215611fac578182fd5b611fb583611e7e565b915060208301358015158114611fc9578182fd5b809150509250929050565b60008060408385031215611fe6578182fd5b611fef83611e7e565b946020939093013593505050565b60006020828403121561200e578081fd5b8135610d6a81612437565b60006020828403121561202a578081fd5b8151610d6a81612437565b60008060408385031215612047578182fd5b823567ffffffffffffffff81111561205d578283fd5b8301601f8101851361206d578283fd5b61207c85823560208401611e08565b95602094909401359450505050565b60006020828403121561209c578081fd5b5035919050565b600080604083850312156120b5578182fd5b50508035926020909101359150565b600081518084526120dc81602086016020860161235f565b601f01601f19169290920160200192915050565b6000835161210281846020880161235f565b83519083019061211681836020880161235f565b01949350505050565b6001600160a01b0385811682528416602082015260408101839052608060608201819052600090612152908301846120c4565b9695505050505050565b602080825282518282018190526000919060409081850190868401855b828110156121cb57815180518552868101516001600160a01b03908116888701528682015116868601526060808201519086015260809081015115159085015260a09093019290850190600101612179565b5091979650505050505050565b602081526000610d6a60208301846120c4565b60208082526032908201527f4552433732313a207472616e7366657220746f206e6f6e20455243373231526560408201527131b2b4bb32b91034b6b83632b6b2b73a32b960711b606082015260800190565b6020808252602a908201527f4552433732313a2062616c616e636520717565727920666f7220746865207a65604082015269726f206164647265737360b01b606082015260800190565b60208082526024908201527f5072696365206d75737420626520657175616c20746f206c697374696e6720706040820152637269636560e01b606082015260800190565b60208082526031908201527f4552433732313a207472616e736665722063616c6c6572206973206e6f74206f6040820152701ddb995c881b9bdc88185c1c1c9bdd9959607a1b606082015260800190565b6000821982111561232f5761232f6123f5565b500190565b6000826123435761234361240b565b500490565b60008282101561235a5761235a6123f5565b500390565b60005b8381101561237a578181015183820152602001612362565b83811115610e395750506000910152565b600181811c9082168061239f57607f821691505b602082108114156123c057634e487b7160e01b600052602260045260246000fd5b50919050565b60006000198214156123da576123da6123f5565b5060010190565b6000826123f0576123f061240b565b500690565b634e487b7160e01b600052601160045260246000fd5b634e487b7160e01b600052601260045260246000fd5b634e487b7160e01b600052604160045260246000fd5b6001600160e01b0319811681146115e057600080fdfea26469706673582212200017d34ae190feb4c14adcb490094b5eae3acede3a2dbaff4d944783e729369c64736f6c63430008040033",
  "linkReferences": {},
  "deployedLinkReferences": {}
}